:100000000C945D000C9485000C9485000C94850084
:100010000C9485000C9485000C9485000C9485004C
:100020000C9485000C9485000C9485000C9422049B
:100030000C9485000C9485000C9485000C9485002C
:100040000C94D8030C9485000C94A6030C948003A4
:100050000C9485000C9485000C9485000C9485000C
:100060000C9485000C94850000000008000201003B
:100070000003040700000000000000000000000072
:10008000250028002B0000000000240027002A0083
:10009000040404040404040402020202020203032E
:1000A0000303030301020408102040800102040836
:1000B0001020010204081020DE0411241FBECFEF1F
:1000C000D8E0DEBFCDBF11E0A0E0B1E0ECE8FEE09B
:1000D00002C005900D92A436B107D9F722E0A4E63C
:1000E000B1E001C01D92A633B207E1F710E0CDE503
:1000F000D0E004C02197FE010E943E07CC35D10715
:10010000C9F70E9455050C9444070C94000090E038
:10011000FC01EC55FF4F249180579F4FFC018491C7
:10012000882399F090E0880F991FFC01EA57FF4F50
:10013000A591B491FC01E458FF4F859194918FB73C
:10014000F894EC91E22BEC938FBF0895AF92BF929D
:10015000CF92DF92EF92FF920F931F93CF93DF9393
:100160006C017B018B01040F151FEB015E01AE18C2
:10017000BF08C017D10759F06991D601ED91FC91E4
:100180000190F081E02DC6010995892B79F7C50111
:10019000DF91CF911F910F91FF90EF90DF90CF9063
:1001A000BF90AF900895FC01538D448D252F30E012
:1001B000842F90E0821B930B541710F0CF96089574
:1001C00001970895FC01918D828D981761F0A28DA1
:1001D000AE0FBF2FB11D5D968C91928D9F5F9F7367
:1001E000928F90E008958FEF9FEF0895FC01918D1D
:1001F000828D981731F0828DE80FF11D858D90E08A
:1002000008958FEF9FEF0895FC01918D228D892F26
:1002100090E0805C9F4F821B91098F73992708950E
:100220008EE691E00E94040121E0892B09F420E090
:10023000822F089580E090E0892B29F00E94100120
:1002400081110C9400000895FC01A48DA80FB92F12
:10025000B11DA35ABF4F2C91848D90E001968F73EE
:100260009927848FA689B7892C93A089B1898C910D
:10027000837080648C93938D848D981306C002885C
:10028000F389E02D80818F7D80830895EF92FF9226
:100290000F931F93CF93DF93EC0181E0888F9B8DA9
:1002A0008C8D98131AC0E889F989808185FF15C063
:1002B0009FB7F894EE89FF896083E889F989808186
:1002C0008370806480839FBF81E090E0DF91CF9155
:1002D0001F910F91FF90EF900895F62E0B8D10E077
:1002E0000F5F1F4F0F731127E02E8C8D8E110CC0E6
:1002F0000FB607FCFACFE889F989808185FFF5CF31
:10030000CE010E942401F1CFEB8DEC0FFD2FF11DEA
:10031000E35AFF4FF0829FB7F8940B8FEA89FB896D
:1003200080818062CFCFCF93DF93EC01888D8823CB
:10033000B9F0AA89BB89E889F9898C9185FD03C048
:10034000808186FD0DC00FB607FCF7CF8C9185FF2D
:10035000F2CF808185FFEDCFCE010E942401E9CF4D
:10036000DF91CF91089590E0FC01E859FF4F24916F
:10037000FC01EC55FF4F3491FC01E057FF4FE49135
:10038000EE23C9F0222339F0233001F1A8F4213003
:1003900019F1223029F1F0E0EE0FFF1FE458FF4F72
:1003A000A591B4918FB7F894EC91611126C0309566
:1003B0003E233C938FBF08952730A9F02830C9F021
:1003C000243049F7809180008F7D03C080918000A8
:1003D0008F7780938000DFCF84B58F7784BDDBCFAC
:1003E00084B58F7DFBCF8091B0008F778093B00074
:1003F000D2CF8091B0008F7DF9CF3E2BDACF8E30F7
:1004000008F08E508770806480937C0080917A0021
:10041000806480937A0080917A0086FDFCCF809181
:1004200078009091790008953FB7F89480916A011F
:1004300090916B01A0916C01B0916D0126B5A89BC4
:1004400005C02F3F19F00196A11DB11D3FBFBA2F66
:10045000A92F982F8827BC01CD01620F711D811D26
:10046000911D42E0660F771F881F991F4A95D1F7AB
:1004700008958F929F92AF92BF92CF92DF92EF92A8
:10048000FF924B015C010E9414026B017C010E94EF
:1004900014026C197D098E099F09683E734081051D
:1004A0009105A8F321E0821A9108A108B10888EE0D
:1004B000C80E83E0D81EE11CF11C81149104A10434
:1004C000B10429F7FF90EF90DF90CF90BF90AF90ED
:1004D0009F908F9008958F929F92AF92BF92FF92BC
:1004E0000F931F93CF93DF93FC01F0808BE08F1568
:1004F00008F44AC0828108E512E0081B110987FD53
:100500001395000F111F000F111F8181C8E8D0E063
:10051000C81BD10987FDD395CC0FDD1FCC0FDD1F84
:100520004E010D2E000CAA08BB089801012E000CEC
:10053000440B550B281939094A095B09DB010E9454
:10054000F90624EB30E040E050E00E94CF06820E36
:10055000931EA41EB51E8C169D062CF0E801801675
:1005600091060CF4E4012297CC0FDD1F2FB7F8940D
:100570008F2D90E0FC01EE0FFF1FE80FF91FE55FE4
:10058000FD4FD283C1832FBFDF91CF911F910F9178
:10059000FF90BF90AF909F908F900895892B79F432
:1005A0001092800082E0809381001092850010926A
:1005B0008400B19A80916F00826080936F000895EB
:1005C000FC0101900020E9F73197AF01481B590B5E
:1005D000BC018EE691E00C94A600CF93DF930E94BD
:1005E000E002EC0182E191E00E94E0028C0F9D1F8D
:1005F000DF91CF9108958F929F92AF92BF92CF9249
:10060000DF92EF92FF920F931F93CF93DF93CDB7BB
:10061000DEB7A1970FB6F894DEBF0FBECDBF6C0159
:10062000990FEE08FF08F7FE47C06DE28EE691E0F5
:100630000E9446018C0122273327A9012C193D096C
:100640004E095F0919A2CE0181967C019AE0892E9C
:10065000912CA12CB12CCA01B901A50194010E94D1
:100660000107605DF70162937F01211531054105A6
:10067000510589F790E080E0309719F0CF010E9492
:10068000E002080F191F82E191E00E94E002800F52
:10069000911FA1960FB6F894DEBF0FBECDBFDF91BC
:1006A000CF911F910F91FF90EF90DF90CF90BF906F
:1006B000AF909F908F900895A701960119A28E0187
:1006C0000F5D1F4F8AE0C82ED12CE12CF12CCA01FE
:1006D000B901A70196010E940107605DF8016293CC
:1006E0008F01211531054105510589F7309729F012
:1006F000CF010E94E0028C01C6CF10E000E0C3CF22
:100700001F920F920FB60F9211242F933F934F9386
:100710005F936F937F938F939F93AF93BF93EF9369
:10072000FF938EE691E00E942401FF91EF91BF912B
:10073000AF919F918F917F916F915F914F913F9179
:100740002F910F900FBE0F901F9018951F920F9230
:100750000FB60F9211242F938F939F93EF93FF93D4
:10076000E0917E01F0917F018081E0918401F09120
:10077000850182FD1BC09081809187018F5F8F73FF
:1007800020918801821741F0E0918701F0E0E25961
:10079000FE4F958F80938701FF91EF919F918F91ED
:1007A0002F910F900FBE0F901F9018958081F4CF5E
:1007B0001F920F920FB60F9211242F933F938F9396
:1007C0009F93AF93BF938091660190916701A09131
:1007D0006801B09169013091650123E0230F2D3745
:1007E00058F50196A11DB11D209365018093660106
:1007F00090936701A0936801B093690180916A01A9
:1008000090916B01A0916C01B0916D010196A11DB9
:10081000B11D80936A0190936B01A0936C01B0931A
:100820006D01BF91AF919F918F913F912F910F904B
:100830000FBE0F901F90189526E8230F0296A11D5A
:10084000B11DD2CF1F920F920FB60F9211242F938A
:100850003F934F935F936F937F938F939F93AF9348
:10086000BF93CF93DF93EF93FF9380916401C09187
:100870002F02D0E087FF24C01092850010928400E0
:10088000809164018F5F8093640180916401082EE0
:10089000000C990B8C179D0724F4809164018C3017
:1008A000C4F18091840090918500049680349C4925
:1008B00008F47AC08091840090918500049676C0F7
:1008C00080916401082E000C990B8C179D07C4F6CB
:1008D000E09164018E2FEE0F990BFC01EE0FFF1FCC
:1008E000E80FF91FE55FFD4F808186FFC9CFE091DA
:1008F00064018E2FEE0F990BFC01EE0FFF1FE80F26
:10090000F91FE55FFD4F808160E08F730E94B301A6
:10091000B7CF2091840030918500E09164018E2F43
:10092000EE0F990BFC01EE0FFF1FE80FF91FE55FBB
:10093000FD4F81819281820F931F90938900809354
:100940008800E09164018E2FEE0F990BFC01EE0FF1
:10095000FF1FE80FF91FE55FFD4F808186FF11C083
:10096000E09164018E2FEE0F990BFC01EE0FFF1F3B
:10097000E80FF91FE55FFD4F808161E08F730E94F2
:10098000B301FF91EF91DF91CF91BF91AF919F9113
:100990008F917F916F915F914F913F912F910F9028
:1009A0000FBE0F901F90189580E49CE990938900EA
:1009B000809388008FEF80936401E3CF10927101E0
:1009C0001092700188EE93E0A0E0B0E08093720195
:1009D00090937301A0937401B093750184E091E04A
:1009E00090936F0180936E0185EC90E090937B0172
:1009F00080937A0184EC90E090937D0180937C0158
:100A000080EC90E090937F0180937E0181EC90E0F8
:100A1000909381018093800182EC90E09093830118
:100A20008093820186EC90E090938501809384010D
:100A300010928701109288011092890110928A0108
:100A400080912F028C3048F591E0980F90932F02FF
:100A50008093330290E0FC01EE0FFF1FE80FF91FB7
:100A6000E55FFD4F88EB9BE09283818380912F02AD
:100A70008C30B8F491E0980F90932F02809330025D
:100A800090E0FC01EE0FFF1FE80FF91FE55FFD4F3F
:100A900088EB9BE09283818308958FEF80933302EC
:100AA000E5CF8FEF809330020895789484B582600B
:100AB00084BD84B5816084BD85B5826085BD85B502
:100AC000816085BD80916E00816080936E00109280
:100AD00081008091810082608093810080918100FB
:100AE000816080938100809180008160809380008C
:100AF0008091B10084608093B1008091B0008160EA
:100B00008093B00080917A00846080937A00809115
:100B10007A00826080937A0080917A00816080936D
:100B20007A0080917A00806880937A001092C100E8
:100B3000E0917E01F0917F0182E08083E0917A0173
:100B4000F0917B011082E0917C01F0917D018FECAE
:100B5000808310928601E0918201F091830186E00A
:100B60008083E0918001F0918101808180618083A8
:100B7000E0918001F0918101808188608083E09123
:100B80008001F0918101808180688083E091800103
:100B9000F091810180818F7D80838AE00E948700AF
:100BA00089E00E948700809133028C3008F042C0B7
:100BB0008AE00E94870080913302282F30E0F901FB
:100BC000EE0FFF1FE20FF31FE55FFD4F9081907C5A
:100BD0009A60908310923402109235022CE0622FBA
:100BE0000E94320790E0829FB001112430E020E0A3
:100BF000AB01420F531FFA01EE0FFF1FE40FF51F69
:100C0000E55FFD4F408146FD07C02F5F3F4F2C3011
:100C1000310571F70E94CE02E09133028E2F90E0F1
:100C2000FC01EE0FFF1FE80FF91FE55FFD4F80810C
:100C300080648083809130028C3008F042C089E06B
:100C40000E94870080913002282F30E0F901EE0FDA
:100C5000FF1FE20FF31FE55FFD4F9081907C9960CD
:100C6000908310923102109232022CE0622F0E9487
:100C7000320790E0829FB001112430E020E0AB0108
:100C8000420F531FFA01EE0FFF1FE40FF51FE55F40
:100C9000FD4F408146FD07C02F5F3F4F2C3031058F
:100CA00071F70E94CE02E09130028E2F90E0FC019D
:100CB000EE0FFF1FE80FF91FE55FFD4F8081806495
:100CC0008083C0E0D0E085E191E00E94ED028FE0FA
:100CD0000E94FF010E94FB0281E291E00E94ED026E
:100CE0008EE00E94FF010E94FB028FE00E94FF0144
:100CF00080329340E4F580E00E94FF01892BB9F136
:100D00008EE291E00E94ED0265E570E083E392E0FF
:100D10000E946B0265E570E080E392E00E946B0246
:100D200062E370E080E090E00E94390283E591E0A8
:100D30000E94ED026EE170E083E392E00E946B029C
:100D400066E970E080E392E00E946B0268EC70E07C
:100D500080E090E00E943902209709F4B4CF0E940D
:100D60001001882309F4AFCF0E940000ACCF8FE0C0
:100D70000E94FF0181329340CCF281E00E94FF018A
:100D8000892BA1F281E491E00E94ED026FE570E011
:100D900083E392E00E946B026FE570E0BDCF052E09
:100DA00097FB1EF400940E94E60657FD07D00E94B0
:100DB000010707FC03D04EF40C94E60650954095CD
:100DC000309521953F4F4F4F5F4F089590958095F7
:100DD000709561957F4F8F4F9F4F08950E94230715
:100DE000A59F900DB49F900DA49F800D911D11247F
:100DF0000895B7FF0C94EE060E94EE06821B930B3B
:100E00000895A1E21A2EAA1BBB1BFD010DC0AA1F4B
:100E1000BB1FEE1FFF1FA217B307E407F50720F063
:100E2000A21BB30BE40BF50B661F771F881F991FDE
:100E30001A9469F760957095809590959B01AC0127
:100E4000BD01CF010895A29FB001B39FC001A39F30
:100E5000700D811D1124911DB29F700D811D1124F3
:100E6000911D0895991B79E004C0991F961708F009
:100E7000961B881F7A95C9F780950895EE0FFF1F7E
:0C0E80000590F491E02D0994F894FFCF48
:100E8C00000000004601A600D30093010401E2001B
:100E9C00F6000D0A006C6566742053656E736F72F4
:100EAC000052696768742053656E736F72006669CF
:100EBC007273742069662073746174656D656E74E9
:100ECC0000656C73652069662073746174656D656B
:100EDC006E74004D6F76696E6720466F7277617223
:040EEC00642100007D
:107E0000112484B714BE81FFF0D085E080938100F7
:107E100082E08093C00088E18093C10086E0809377
:107E2000C20080E18093C4008EE0C9D0259A86E02C
:107E300020E33CEF91E0309385002093840096BBD3
:107E4000B09BFECF1D9AA8958150A9F7CC24DD24C4
:107E500088248394B5E0AB2EA1E19A2EF3E0BF2EE7
:107E6000A2D0813461F49FD0082FAFD0023811F036
:107E7000013811F484E001C083E08DD089C08234E0
:107E800011F484E103C0853419F485E0A6D080C0E4
:107E9000853579F488D0E82EFF2485D0082F10E0AE
:107EA000102F00270E291F29000F111F8ED06801E7
:107EB0006FC0863521F484E090D080E0DECF843638
:107EC00009F040C070D06FD0082F6DD080E0C81688
:107ED00080E7D80618F4F601B7BEE895C0E0D1E017
:107EE00062D089930C17E1F7F0E0CF16F0E7DF06D8
:107EF00018F0F601B7BEE89568D007B600FCFDCFD4
:107F0000A601A0E0B1E02C9130E011968C91119780
:107F100090E0982F8827822B932B1296FA010C0160
:107F200087BEE89511244E5F5F4FF1E0A038BF0790
:107F300051F7F601A7BEE89507B600FCFDCF97BE46
:107F4000E89526C08437B1F42ED02DD0F82E2BD052
:107F50003CD0F601EF2C8F010F5F1F4F84911BD097
:107F6000EA94F801C1F70894C11CD11CFA94CF0C13
:107F7000D11C0EC0853739F428D08EE10CD085E9AC
:107F80000AD08FE07ACF813511F488E018D01DD067
:107F900080E101D065CF982F8091C00085FFFCCF94
:107FA0009093C60008958091C00087FFFCCF809118
:107FB000C00084FD01C0A8958091C6000895E0E648
:107FC000F0E098E1908380830895EDDF803219F02E
:107FD00088E0F5DFFFCF84E1DECF1F93182FE3DFCA
:107FE0001150E9F7F2DF1F91089580E0E8DFEE27F6
:047FF000FF270994CA
:027FFE00040479
:0400000300007E007B
:00000001FF
